:020000040800F2
:1000000000A000207D5D0008C90D0008CB0D000890
:10001000CD0D0008CF0D0008D10D00080000000034
:10002000000000000000000000000000D30D0008E8
:10003000D50D000800000000D70D0008D90D0008FC
:10004000CD5D0008CD5D0008CD5D0008CD5D0008E8
:10005000CD5D0008CD5D0008CD5D0008CD5D0008D8
:10006000CD5D0008CD5D0008CD5D0008CD5D0008C8
:10007000CD5D0008CD5D0008CD5D0008CD5D0008B8
:10008000CD5D0008CD5D0008CD5D000800000000DA
:10009000000000000000000000000000CD5D00082E
:1000A000CD5D0008CD5D0008CD5D0008CD5D000888
:1000B000CD5D00080000000000000000CD5D0008DC
:1000C000CD5D0008CD5D0008CD5D0008CD5D000868
:1000D000CD5D0008CD5D0008E10D0008CD5D000894
:1000E000CD5D0008CD5D00080000000000000000AC
:1000F0000000000000000000000000000000000000
:1001000000000000000000000000000000000000EF
:100110000000000000000000CD5D000800000000AD
:10012000CD5D0008CD5D0008CD5D0008CD5D000807
:10013000CD5D00080000000000000000000000008D
:10014000CD5D0008CD5D0008CD5D0008CD5D0008E7
:10015000CD5D0008CD5D0008CD5D0008CD5D0008D7
:10016000CD5D0008CD5D000800000000000000002B
:1001700000000000CD5D000800000000000000004D
:10018000CD5D0008CD5D0008CD5D000800000000D9
:1001900010B5054C237833B9044B13B10448AFF3C1
:1001A00000800123237010BD8800002000000000A3
:1001B000FC66000808B5034B1BB103490348AFF3C5
:1001C000008008BD000000008C000020FC660008D4
:1001D000034613F8012B002AFBD1181A0138704787
:1001E00001F0FF01102A2BDB10F0070F08D010F8E8
:1001F000013B013A8B422DD010F0070F42B3F6D1EC
:10020000F0B441EA012141EA014122F007047FF004
:1002100000070023F0E80256083C85EA010586EA5B
:10022000010685FA47F5A3FA87F586FA47F6A5FA97
:1002300087F68EB9EED1F0BC01F0FF0102F00702A3
:1002400032B110F8013B013A83EA010313B1F8D14E
:100250000020704701387047002D06BF354603382F
:10026000073815F0010F07D1013015F4807F02BF68
:10027000013015F4C03F0130F0BC0138704700BFB9
:1002800053B94AB9002908BF00281CBF4FF0FF31FD
:100290004FF0FF3000F06EB9ADF1080C6DE904CEFF
:1002A00000F006F8DDF804E0DDE9022304B0704751
:1002B0002DE9F047089D04468C46002B40F08380D2
:1002C0008A42174647D9B2FA82F242B1C2F12000FF
:1002D00024FA00F09140974040EA010C94404FEA24
:1002E0001748230CBCFBF8F61FFA87FE08FB16C163
:1002F00043EA014306FB0EF1994209D9FB1806F1C6
:10030000FF3080F01981994240F21681023E3B4451
:100310005B1AA4B2B3FBF8F008FB103344EA0344C1
:1003200000FB0EFEA64509D93C1900F1FF3380F011
:100330000581A64540F2028102383C4440EA06406D
:10034000A4EB0E0400261DB1D4400023C5E90043F0
:100350003146BDE8F08702B9FFDEB2FA82F2002A28
:1003600050D1CB1B4FEA174E1FFA87F80126B3FB7B
:10037000FEFC210C0EFB1C3341EA034108FB0CF38D
:100380008B4207D979180CF1FF3002D28B4200F270
:10039000E9808446C91AA3B2B1FBFEF00EFB10112E
:1003A00043EA014408FB00F8A04507D93C1900F1D5
:1003B000FF3302D2A04500F2D9801846A4EB08040E
:1003C00040EA0C40BFE78B4209D9002D00F0B18014
:1003D0000026C5E9000130463146BDE8F087B3FA92
:1003E00083F6002E4AD18B4202D3824200F2B880BB
:1003F000841A61EB030101208C46002DA8D0C5E9C9
:10040000004CA5E7C2F1200320FA03F6974001FA59
:1004100002F04FEA174ED9403043030CB1FBFEF611
:100420001FFA87F80EFB161143EA014306FB08F199
:10043000994204FA02F409D9FB1806F1FF3C80F056
:100440008D80994240F28A80023E3B445B1A81B221
:10045000B3FBFEF00EFB103341EA034100FB08F34F
:100460008B4207D9791800F1FF3C73D28B4271D9C6
:1004700002383944CB1A40EA064678E7C6F1200C28
:1004800003FA06F422FA0CF31C4320FA0CF701FAE3
:1004900006F34FEA144E21FA0CF11F433B0CB1FB5B
:1004A000FEF91FFA84F80EFB191143EA014109FB1A
:1004B00008FA8A4502FA06F200FA06F308D961182A
:1004C00009F1FF3048D28A4546D9A9F102092144F1
:1004D000A1EB0A01BFB2B1FBFEF00EFB101147EA1F
:1004E000014700FB08F8B84507D9E71900F1FF31CB
:1004F0002ED2B8452CD90238274440EA0940A7EB50
:100500000807A0FB02894F45C64649461AD317D0B3
:100510005DB1B3EB0E0267EB010707FA0CFCF2408A
:100520004CEA0202F740C5E9002700263146BDE843
:10053000F0872E4628460BE70646E9E61846FDE614
:100540004345E5D2B8EB020E69EB04010138DFE761
:100550000846D2E760468DE78146B9E7664675E70B
:1005600030464AE7ACF1020C394413E702383C4408
:1005700024E700BF704700BF10B586B00D4802F0F9
:10058000B0FB002401940294039404940594224641
:1005900048F270014FF0904002F0ACF848F270035E
:1005A000019303230293039401A9034801F05AFF26
:1005B00006B010BDB80A002000040048F0B58BB0AA
:1005C0000024059406940794089409943B4BDA6C34
:1005D00042F00402DA64DA6C02F004020192019A39
:1005E000DA6C42F08002DA64DA6C02F08002029285
:1005F000029ADA6C42F00102DA64DA6C02F001026B
:100600000392039ADA6C42F00202DA64DB6C03F0C4
:1006100002030493049B224648F210014FF09040DD
:1006200002F068F801224FF490714FF0904002F010
:1006300061F8234E01224FF40051304602F05AF87F
:100640004FF46043059303250695079405A91D48BB
:1006500001F008FF0B2305930695079405A91A4896
:1006600001F000FF47F6016305930695079405A97D
:100670004FF0904001F0F6FE48F230130593012749
:1006800006970794089405A94FF0904001F0EAFE00
:1006900041F2FF2305930695079405A9304601F022
:1006A000E1FE4FF400530593069707940223089345
:1006B00005A9304601F0D6FE0BB0F0BD0010024097
:1006C0000004004800080048001C004830B587B00E
:1006D0000D4802F006FB0024019402940394049454
:1006E00005940A4D22464FF46441284602F002F870
:1006F0004FF46443019303230293039401A9284612
:1007000001F0B0FE07B030BDEC010020000400484D
:100710000FB410B582B004AB53F8042B01930A4C0C
:100720004FF48071204605F0BFFB2046FFF750FDD7
:100730004FF0FF3382B22146044803F0A8FA02B01A
:10074000BDE8104004B07047A80000201C0B00203A
:1007500038B50C4C0C4D4FF480622146284603F00E
:100760005CFC0A48FFF7D4FF2046FFF731FD0A235F
:1007700082B22146284603F08AFA054B01221A70FC
:1007800038BD00BFB00600201C0B00201867000811
:10079000A400002008B572B64FF400414FF090401D
:1007A00001F0ADFF4FF4FA7001F008F8F4E7000033
:1007B00008B51048104B03604FF482734360002368
:1007C00083604FF4E062C260036143614FF40072E2
:1007D00082611022C2610362436283620722C262A5
:1007E00003630823436302F00DFA00B908BDFFF765
:1007F000D1FF00BFB80A00200030014008B50F4803
:100800000F4B03604FF482734360002383604FF407
:10081000E062C260036143614FF4007282611022A2
:10082000C2610362436283620722C262036343635D
:1008300002F0E8F900B908BDFFF7ACFFEC010020B9
:100840000038004030B5ADF5197D0546642000F054
:10085000B5FF01224FF480714FF0904001F04AFF44
:10086000FFF7ACFEFFF7CAFF00F04EFF002397939F
:100870006948FFF74DFF642000F0A0FF012267499F
:10088000674804F037FD674B18700DE06648FFF7C6
:100890003FFF01226149624804F02CFD614B187052
:1008A0004FF47A7000F08AFF5E4B19780029EDD181
:1008B0005E48FFF72DFF1A2229465D4804F048FDE7
:1008C000584A107000283BD1594BDB68002B39D0B7
:1008D000002003F0FBFB0A2300930098554B1B6894
:1008E000984234D203F080FC024600995248FFF748
:1008F0000FFF684603F0C2FC01464FF4967201A850
:1009000005F092FA01A94D48FFF702FF00994C4803
:10091000FFF7FEFE01A8FFF75BFC024697AB01A9BB
:10092000434804F00AFF3F4C207097994548FFF771
:10093000EFFE2378002BD0D04348FFF7E9FECCE749
:10094000FFF728FF00213A4805F058F8C0E738487B
:1009500005F03FF8012229463C4804F0F9FC314AF1
:10096000107018B13A48FFF7D3FEFEE73948FFF799
:10097000CFFE364A4FF496714CA805F08BF94CA97E
:100980003548FFF7C5FE314A4FF496714CA805F083
:1009900081F90028F3D1234C21783048FFF7B8FEC5
:1009A000237863BB00212E4B19704FF480622D48D1
:1009B00005F032FA1E4804F0C0FF2B4B00221A70DB
:1009C000012005F0D5F908BB2848FFF7A1FE002259
:1009D0002749104604F08EFC164B0A221A60FFF7D6
:1009E00075FE00224FF480714FF0904001F082FEBE
:1009F000012003F06BFB00200DF5197D30BD0C4884
:100A000004F09BFF1B48FFF783FED6E71A48FFF769
:100A10007FFEFFF7BFFE00BF24680008486900089A
:100A200050020020A00B0020486800086068000801
:100A3000D40D00200000002088680008A868000885
:100A4000B8680008CC680008F0680008A40B002013
:100A5000086900081C6900084C69000878690008EA
:100A6000A4000020B0060020A5000020C4690008F2
:100A7000DC6900089C690008AC69000808B50B48EF
:100A80000B4B03604FF4E133436000238360C3608A
:100A900003610C2242618361C3610362436203F01C
:100AA0009AF900B908BDFFF775FE00BF1C0B0020C6
:100AB0000044004000B597B04422002105A805F08D
:100AC000ABF90023009301930293039304934FF433
:100AD000007001F073FED8B9022305934FF48073C0
:100AE0000893402309930023109305A800F044FFC6
:100AF00080B90F23009301230193002102910391F8
:100B00000491684601F0A6FA30B917B05DF804FB0D
:100B1000FFF740FEFFF73EFEFFF73CFE10B5FFF784
:100B20002BFD234B1B68DA6912F4803FF9D1DA6997
:100B300012F4800FFBD01F4B4FF400121A6093E8A1
:100B400006001B4803F0FCF978BB194C2268936837
:100B500043F480039360204603F031FA1648FFF710
:100B6000D7FD00F04FFE00F055FE00F05BFE00F0F8
:100B700039FE012001F06AFEFFF79CFFFFF71EFD22
:100B8000FFF716FE00F036FE204603F02FFA4FF472
:100B900080620A49204603F040FA01224FF4807136
:100BA0004FF0904001F0A6FD10BDFFF7F3FD00BF30
:100BB0001C0B0020B00A0020E0690008B0060020ED
:100BC00030B5ADF20C4D002003F080FA032003F0A5
:100BD000B5FB18B94548FFF79BFDFEE74448FFF712
:100BE00097FD0DF204410DF2074003F061FB9DF803
:100BF00007144048FFF78CFDBDF804143E48FFF78A
:100C000087FD3E48FFF784FD00224FF400414FF07E
:100C1000904001F06FFD00F0CBFD04460DE0FFF7C2
:100C2000B9FD374B01221A700DF20C4D30BD00F0AA
:100C3000BFFD031BB3F5FA6F4BD8002003F046FA53
:100C4000304B1B78002BF2D0002003F03FFA4FF41A
:100C500000414FF0904001F052FD302301934FF4DA
:100C60007F72002102A805F0D7F8274D2846FFF72C
:100C7000AFFA0246294601A805F0D6F82846FFF744
:100C8000A7FA02460021284605F0C6F81F48FFF7DC
:100C90003FFD1F4D29681F48FFF73AFD01A928466F
:100CA00003F086FA0028BAD11B48FFF731FD184D32
:100CB00029681848FFF72CFD2B681D2BB1DC4FF479
:100CC00000414FF0904001F01AFD0E4B00221A70C7
:100CD000B3E700F06DFD04461048FFF719FD012051
:100CE00003F0F4F9FFF71AFFA7E700BF2C6700082D
:100CF000F46900080C6A0008246A0008386A0008D1
:100D0000A5000020A4000020B00600203C6A0008D6
:100D100000000020506A0008686A0008846A000821
:100D200000B583B000F028FDFFF7C4FEFFF746FCD6
:100D3000FFF73EFDFFF762FDFFF7A0FE00F0E4FCC9
:100D40004FF480621849194803F067F9032003F053
:100D5000F5FA18B91648FFF7DBFCFEE71548FFF770
:100D6000D7FC01A90DF1070003F0A2FA9DF80710C6
:100D70001148FFF7CDFCBDF804101048FFF7C8FC80
:100D8000FFF7A4FC00224FF480714FF0904001F077
:100D9000B1FC01E0FFF714FF094B1B78002BF9D0E1
:100DA0000848FFF74FFDF5E7B00600201C0B0020B8
:100DB0002C670008606700080C6A0008246A0008B5
:100DC000A5000020B86A0008FEE7FEE7FEE7FEE7A0
:100DD000FEE770477047704708B500F0DDFC08BDBE
:100DE00008B5024802F016FB08BD00BF1C0B00202E
:100DF00082B00A4B1A6E42F001021A661A6E02F0B5
:100E000001020092009A9A6D42F080529A659B6DA1
:100E100003F080530193019B02B070470010024021
:100E200000B58BB0002305930693079308930993AD
:100E30000368274A934205D0264A934225D00BB037
:100E40005DF804FB244B1A6E42F480521A661A6E47
:100E500002F480520192019ADA6C42F00102DA64E3
:100E6000DB6C03F001030293029BC2230593022370
:100E7000069300230793032308930523099305A9E9
:100E80004FF0904001F0EEFAD9E7134B9A6D42F41F
:100E900080429A659A6D02F480420392039ADA6C5A
:100EA00042F00202DA64DB6C03F002030493049B59
:100EB0004FF444430593022306930023079303232F
:100EC00008930523099305A9044801F0CBFAB6E776
:100ED000003001400038004000100240000400488B
:100EE00008B503680F4A934203D00F4A93420CD0CF
:100EF00008BD02F56042136E23F480531366C221CD
:100F00004FF0904001F078FBF2E702F5EC32936D80
:100F100023F4804393654FF44441044801F06CFB93
:100F2000E6E700BF00300140003800400004004800
:100F300010B594B0044600210F91109111911291B7
:100F40001391342202A804F067FF22681D4B9A42D5
:100F500001D014B010BD02230293082304930DEBBB
:100F6000030001F065F950BB174B9A6D42F4003253
:100F70009A659A6D02F400320092009ADA6C42F09F
:100F80000102DA64DB6C03F001030193019B0C2383
:100F90000F93022310930024119403231293072329
:100FA00013930FA94FF0904001F05CFA22462146BE
:100FB000262001F07BFC262001F0ACFCC9E7FFF7FE
:100FC000E9FBD1E7004400400010024008B500F002
:100FD0002DF9C0B208BD08B500F0DCF9C0B208BDFB
:100FE00008B500F0E1F9C0B208BD08B500F022FA7A
:100FF000C0B208BD08B500F075FAC0B208BD000067
:1010000000B587B08DF80F003223009301230DF156
:1010100017020DF10F01044801F075FF9DF817004C
:1010200007B05DF804FB00BFEC01002070B5064678
:1010300000F0BEFB0546FF20FFF7E2FF0446FF2855
:1010400004D000F0B5FB401BB042F4D3FF2C14BF1A
:101050000020012070BD70B506460D460024AC424C
:1010600005D2FF20FFF7CCFF30550134F7E770BD04
:1010700070B506460D460024AC4204D2305DFFF741
:10108000BFFF0134F8E770BD38B505460C464FF494
:10109000FA70FFF7CBFF00B938BD2046FFF7B0FF6D
:1010A000FD2C01D10120F7E74FF400712846FFF72E
:1010B000DFFFFF20FFF7A4FFFF20FFF7A1FFFF20C6
:1010C000FFF79EFF00F01F00052801D10120E3E794
:1010D0000020E1E708B501224FF40051034801F078
:1010E00009FBFF20FFF78CFF08BD00BF000400488C
:1010F00010B500224FF40051084801F0FBFAFF2020
:10110000FFF77EFF4FF4FA70FFF790FF10B1012454
:10111000204610BD0446FFF7DDFFF9E70004004854
:1011200038B504460D4610F0800F2CD10C2C04D09D
:10113000FFF7D0FFFFF7DCFFB0B344F04000FFF74C
:101140005FFF280EFFF75CFFC5F30740FFF758FF6E
:10115000C5F30720FFF754FFE8B2FFF751FFDCB1FA
:101160000120082C1AD0FFF74BFF0C2C18D00A24B2
:10117000FF20FFF745FF10F0800F03D0631E13F030
:10118000FF04F5D138BD00F07F0400213720FFF7C0
:10119000C7FF0128CAD9F5E79520E2E78720E2E7F3
:1011A000FF20FFF72DFFE2E7FF20EBE710B5044635
:1011B00000F0FEFA024B1860024B1C6010BD00BF2D
:1011C000041000200810002008B500F0F1FA054BCB
:1011D0001B68C01A044B1B6898422CBF00200120DA
:1011E00008BD00BF041000200810002070B505469F
:1011F0000E46C820FFF7DAFFFF20FFF701FF044685
:10120000FF2803D1FFF7E0FF0028F5D1FE2C01D025
:10121000002070BD31462846FFF71DFFFF20FFF775
:10122000EFFEFF20FFF7ECFE0120F2E7002840F080
:10123000A980554B1B7813F0020F11D170B582B005
:10124000524B1A68136823F0380343F010031360FD
:101250000A244CB1FF20FFF7D3FE013CE4B2F8E7CB
:10126000494B1878C0B2704700210846FFF758FF75
:101270000546012817D0464B1C70FFF72BFF002CAA
:101280007CD0424B1A68136823F0380343F00803FC
:1012900013603D4A137803F0FE0313703A4B18783D
:1012A000C0B202B070BD4FF47A70FFF77FFF4FF409
:1012B000D5710820FFF734FF01283CD1254608E00E
:1012C000FF20FFF79DFE02AB2B4403F8040C013511
:1012D000EDB2032DF4D99DF80630012BCBD19DF84A
:1012E0000730AA2BC7D1FFF76FFF30B14FF0804115
:1012F000A920FFF715FF0028F5D1FFF765FF08B912
:101300000446B8E700213A20FFF70AFF054648B136
:10131000B1E7FF20FFF774FE02AB2B4403F8040C87
:101320000135EDB2032DF4D99DF8043013F0400FD0
:1013300022D00C249FE70021A920FFF7F1FE01280D
:101340000ED92E46FFF740FF28B100212846FFF7AF
:10135000E7FE0028F6D1FFF737FF20B904468AE7F9
:101360000226A925EEE74FF400711020FFF7D8FE02
:10137000002880D134467EE704247CE7024B01221A
:101380001A708BE70120704718000020EC01002044
:10139000A801002018B9034B1878C0B2704701208B
:1013A000704700BF18000020002839D138B50D461D
:1013B0001C46002B36D01D4B1B7813F0010F33D188
:1013C0001B4B1B7813F0080F00D15202012C18D0D0
:1013D00011461220FFF7A4FE68B94FF400712846A9
:1013E000FFF704FF18B105F50075013CF5D10021A8
:1013F0000C20FFF795FEFFF76DFE201E18BF0120A1
:1014000038BD11461120FFF78BFE0028F3D14FF4B1
:1014100000712846FFF7EAFE0028ECD00024EAE736
:10142000042070470420EBE70320E9E718000020C0
:10143000A8010020002848D170B50D4616461C466C
:10144000002B44D0254B1B7813F0010F41D1234BC7
:101450001B7813F0040F3ED1214B1B7813F0080FBB
:1014600000D15602012C1BD013F0060F26D13146B5
:101470001920FFF755FE68B9FC212846FFF704FE46
:1014800018B105F50075013CF6D1FD210020FFF7EC
:10149000FBFDC0B1FFF71EFE201E18BF012070BD6E
:1014A00031461820FFF73CFE0028F3D1FE212846E4
:1014B000FFF7EAFD0028EDD00024EBE72146972056
:1014C000FFF72EFED3E70124E4E704207047042051
:1014D000E5E70320E3E70220E1E700BF1800002072
:1014E000A801002070B584B0002840F004810D46AA
:1014F0001646834B1B7813F0010F40F0FE80042941
:1015000000F2ED80DFE811F005000C00EB00540064
:10151000AF00FFF7EDFD002840F0E380012406E076
:1015200000210920FFF7FCFD044628B12C46FFF7F7
:10153000D1FD204604B070BD10216846FFF756FE6D
:10154000002800F0D0809DF800309B09012B1FD0AF
:101550009DF8052002F00F029DF80A3002EBD3122D
:101560009DF809305B0003F006031A449DF808104B
:101570009DF807309B0003EB91139DF8061089023C
:1015800001F440610B440133073A93403360CEE7E6
:101590009DF809309DF8082003EB02239DF80720F1
:1015A000120402F47C12134401339B023360BEE741
:1015B000544B1B7813F0040F20D000218D20FFF72F
:1015C000AFFD08B10124B2E7FF20FFF719FD10219C
:1015D0006846FFF70BFE78B90124A8E7FF20FFF764
:1015E0000FFD013CE4B2002CF8D19DF80A301A0935
:1015F0001023934033609AE73024F4E70021092058
:10160000FFF78EFD054608B1012490E710216846DA
:10161000FFF7ECFD002868D03A4B1C7814F0020468
:1016200011D09DF80A305B0003F07E039DF80B207B
:1016300003EBD21301339DF80D209209013A934038
:1016400033602C4673E79DF80A30C3F384029DF89B
:101650000B10CB0003F0180303EB5113013302FB13
:101660000333336063E7274B1B7813F0060F01D178
:1016700001245CE76A460B21FFF734FFB8BB9DF8F5
:1016800000309B0904D19DF80A3013F0400F30D090
:10169000316874681B4B1B7813F0080F01D14902A5
:1016A00064022020FFF73CFD08B101243FE72146FA
:1016B0002120FFF735FD08B1012438E7002126205D
:1016C000FFF72EFD044608B1012430E747F2305001
:1016D000FFF7ACFC00287FF42AAF012427E704249D
:1016E00025E72C4623E72C4621E701241FE70124A8
:1016F0001DE701241BE704241BE7032419E700BFAF
:1017000018000020A801002008B50349034804F090
:101710000BFB034B187008BD0C10002004000020C8
:101720001010002000207047104B1B780BB90120CF
:10173000704710B504464FF47A70B0FBF3F30C4ACF
:101740001068B0FBF3F001F0F3F868B90F2C01D981
:1017500001200AE0002221464FF0FF3001F0A6F8F8
:10176000044B1C60002000E0012010BD1900002087
:10177000200000201C00002010B5032001F084F898
:101780000F20FFF7D1FF10B10124204610BD044601
:10179000FFF72EFBF9E70000034B1B78034A1168A3
:1017A0000B441360704700BF190000207414002020
:1017B000014B1868704700BF7414002038B5044608
:1017C000FFF7F6FF0546B4F1FF3F02D0044B1B784C
:1017D0001C44FFF7EDFF401BA042FAD338BD00BF09
:1017E00019000020024A136823F0020313607047B7
:1017F00010E000E0024A136843F0020313607047F0
:1018000010E000E0024A536823F001035360704780
:10181000002004E0024A536823F00203536070473B
:10182000002004E0024A536823F004035360704729
:10183000002004E030B583B00446204B9B6D13F0CC
:10184000805F0BD000F0B2FFB0F5007F17D0802C86
:101850001FD82DD0702C2DD000211BE0174DAB6D63
:1018600043F08053AB65AB6D03F080530193019B54
:1018700000F09CFFAB6D23F08053AB65E4E7802C58
:1018800003D9A02C03D9022104E0002102E00121A8
:1018900000E003210A4A136823F007030B43136097
:1018A000136803F007038B4206D1002003B030BD5C
:1018B0000221EFE70121EDE70120F7E700100240E8
:1018C00000200240284A9368D26802F0030213F015
:1018D0000C030AD00C2B06D0042B1FD0082B20D0D1
:1018E0000020024610E0012AF6D11F4A126812F0C9
:1018F000080F0CD11C4AD2F89420C2F303221B49D2
:1019000051F8222043B100200C2B0DD07047164A0D
:101910001268C2F30312F2E71046F5E714480022FA
:10192000F2E714480022EFE70F4BDB6803F00303F4
:10193000022B16D0032B00D10E4A0B4BD868C0F3F4
:1019400002100130D968C1F3062102FB01F2B2FB9B
:10195000F0F2D868C0F3416001304000B2FBF0F013
:10196000D4E7034AE9E700BF00100240DC6A000840
:101970000024F40000127A00002800F05383F0B530
:1019800083B00446964B9D6805F00C05DE6806F0B2
:101990000306036813F0100F5AD0E5B10C2D18D0D0
:1019A000E369002B00F0BB808D4A136843F001030C
:1019B0001360FFF7FDFE0746894B1B6813F0020F0B
:1019C00040F09A80FFF7F4FEC01B0228F4D90320F0
:1019D00035E3012EE4D1824B1B6813F0020F03D0D4
:1019E000E369002B00F02083606A7D4B1B6813F0D5
:1019F000080F5BD07A4B1B6803F0F00398425CD869
:101A0000774B1A6842F008021A601A6822F0F00256
:101A1000616A0A431A605A6822F47F42216A42EAE4
:101A200001225A60002D60D0FFF74CFF6C4B9B6881
:101A3000C3F303136B4AD35C03F01F03D8406A4B14
:101A400018606A4B1868FFF76FFE002840F0F782B5
:101A5000236813F0010F00F08180082D75D00C2D44
:101A600071D06368B3F5803F00F09880B3F5A02F84
:101A700000F09A805A4B1A6822F480321A601A6871
:101A800022F480221A606368002B00F09A80FFF72E
:101A90008FFE0746524B1B6813F4003F5ED1FFF7E1
:101AA00087FEC01B6428F5D90320C8E24C4BD3F84D
:101AB00094301B0903F0F003A0E7FFF7BBFE0028FA
:101AC00040F0B482464B1A6842F008021A601A6865
:101AD00022F0F002616A0A431A605A6822F47F42D7
:101AE000216A42EA01225A609EE7606AFFF7A2FE7D
:101AF000002899D00120A2E2394B1A6842F008026E
:101B00001A601A6822F0F002616A0A431A605A6881
:101B100022F47F42216A42EA01225A6098E7304A61
:101B2000136823F001031360FFF742FE07462C4BB6
:101B30001B6813F0020F8BD0FFF73AFEC01B022880
:101B4000F5D903207BE2032E8BD1254B1B6813F4C0
:101B5000003F03D06368002B00F06A82236813F013
:101B6000020F58D0042D45D00C2D41D0E368002B36
:101B700000F091801A4A136843F480731360FFF7F2
:101B800017FE0646164B1B6813F4806F7AD1FFF7D9
:101B90000FFE801B0228F5D9032050E2104A13687B
:101BA00043F4803313606EE703F18043A3F53C33C5
:101BB0001A6842F480221A601A6842F480321A606D
:101BC00061E7FFF7F5FD0746054B1B6813F4003F7F
:101BD000C4D0FFF7EDFDC01B6428F5D903202EE229
:101BE00000100240C46A0008200000201C000020F1
:101BF000022EBBD1BE4B1B6813F4806F03D0E36889
:101C0000002B00F01782BA4A536823F0FE43216983
:101C100043EA01635360236813F0080F7DD06369C2
:101C2000002B63D0B24BD3F89430A16903F01002BB
:101C3000914210D003F00302022A00F0FD8113F05C
:101C4000010F3CD1AA4AD2F8943023F01003A169C5
:101C50000B43C2F89430A64AD2F8943043F0010303
:101C6000C2F89430FFF7A4FD0646A14BD3F8943098
:101C700013F0020F51D1FFF79BFD801B1128F4D9FF
:101C80000320DCE19A4A536823F0FE43216943EACA
:101C900001635360BFE7964A136823F480731360AF
:101CA000FFF786FD0646924B1B6813F4806FB2D097
:101CB000FFF77EFD801B0228F5D90320BFE18C4A87
:101CC000D2F8943023F00103C2F89430FFF770FD8E
:101CD0000646874BD3F8943013F0020FB2D0FFF7CB
:101CE00067FD801B1128F4D90320A8E1804AD2F8AF
:101CF000943023F00103C2F89430FFF759FD0646F3
:101D00007B4BD3F8943013F0020F06D0FFF750FD51
:101D1000801B1128F4D9032091E1236813F0040FEC
:101D200000F08D80724B9B6D13F0805F2ED1704B55
:101D30009A6D42F080529A659B6D03F08053019337
:101D4000019B01266B4B1B6813F4807F20D0A36896
:101D500013F0010F38D06649D1F8902022F08002AC
:101D600003F080031343C1F89030A36813F0040F0D
:101D700022D0D1F8902042F00402C1F89020D1F88E
:101D8000902042F00102C1F890202AE00026D9E715
:101D9000584A136843F480731360FFF709FD074640
:101DA000544B1B6813F4807FD1D1FFF701FDC01B9A
:101DB0000228F5D9032042E14D4AD2F8903043F091
:101DC0000103C2F890300CE0494BD3F8902022F088
:101DD0000102C3F89020D3F8902022F00402C3F847
:101DE0009020A3688BB1FFF7E3FC0746404BD3F884
:101DF000903013F0020F21D1FFF7DAFCC01B41F243
:101E000088339842F2D9032019E1FFF7D1FC074645
:101E1000374BD3F8903013F0020F08D0FFF7C8FC0F
:101E2000C01B41F288339842F2D9032007E1304ABF
:101E3000D2F8903023F08003C2F89030E6B92368DE
:101E400013F0200F35D0A36AE3B1294AD2F89830B5
:101E500043F00103C2F89830FFF7AAFC0646244B72
:101E6000D3F8983013F0020F23D1FFF7A1FC801BA9
:101E70000228F4D90320E2E01D4A936D23F0805339
:101E80009365DCE71A4AD2F8983023F00103C2F8D0
:101E90009830FFF78DFC0646154BD3F8983013F0B9
:101EA000020F06D0FFF784FC801B0228F4D9032020
:101EB000C5E0E36A002B00F0C180022B1CD00C2D82
:101EC00000F0C1800A4A136823F080731360FFF7A3
:101ED0006FFC0446064B1B6813F0007F00F09980EE
:101EE000FFF766FC001B0228F4D90320A7E000BF1F
:101EF0000010024000700040544BDB6803F0030107
:101F0000226B914216D00C2D00F09B804F4A136833
:101F100023F080731360FFF74BFC05464B4B1B68A7
:101F200013F0007F2AD0FFF743FC401B0228F5D9AD
:101F3000032084E003F07002616B0139B2EB011FF2
:101F4000E1D103F4FE42A16BB2EB012FDBD103F42C
:101F5000C001E26B5208013AB1EB425FD3D103F00A
:101F6000C063226C5208013AB3EB426FCBD1374BBE
:101F70001B6813F0007F32D0002060E0334AD36842
:101F800033491940236B606B013843EA0013A06B9F
:101F900043EA0023E06B4008013843EA4053206CD9
:101FA0004008013843EA40630B43D360136843F0B1
:101FB00080731360D36843F08073D360FFF7F8FB3E
:101FC0000446224B1B6813F0007F06D1FFF7F0FB9D
:101FD000001B0228F5D9032031E000202FE01B4B25
:101FE0001A6842F080721A60DA6842F08072DA6031
:101FF000FFF7DEFB0446154B1B6813F0007F06D18C
:10200000FFF7D6FB031B022BF5D9032017E00020B6
:1020100015E00E4AD36823F0887323F00303D360DE
:1020200000200CE001207047012008E0012006E0BC
:10203000012004E0012002E0012000E0002003B0C4
:10204000F0BD0120FBE70120F9E700BF00100240CE
:102050008C809FF9002800F0AF8070B50D460446D3
:10206000594B1B6803F007038B420BD2564A136887
:1020700023F007030B431360136803F007038B423D
:1020800040F09C80236813F0020F0CD0A2684F4BE5
:102090009B6803F0F0039A4205D94C498B6823F002
:1020A000F0031A438A60236813F0010F39D0636884
:1020B000032B09D0022B26D063BB444A126812F0CE
:1020C000020F06D1012076E0404A126812F0007F2C
:1020D00076D03E498A6822F0030213438B60FFF7F3
:1020E00067FB0646394B9B6803F00C036268B3EB51
:1020F000820F16D0FFF75CFB801B41F288339842B9
:10210000F0D9032057E0314A126812F4003FE0D1C1
:10211000012050E02D4A126812F4806FD9D10120BD
:1021200049E0236813F0020F0CD0A268274B9B688C
:1021300003F0F0039A4205D224498B6823F0F003A0
:102140001A438A60204B1B6803F00703AB420AD98D
:102150001D4A136823F007032B431360136803F031
:102160000703AB422ED1236813F0040F06D0174AA1
:10217000936823F4E063E1680B439360236813F0F2
:10218000080F07D0114A936823F46053216943EA8A
:10219000C1039360FFF796FB0C4B9B68C3F30313DB
:1021A0000B4AD35C03F01F03D8400A4B18600A4B5C
:1021B0001868FFF7B9FA70BD012070470120FAE7EF
:1021C0000120F8E70120F6E700200240001002405D
:1021D000C46A0008200000201C000020014B186881
:1021E000704700BF2000002008B5FFF7F7FF054B40
:1021F0009B68C3F30223044AD35C03F01F03D84057
:1022000008BD00BF00100240D46A000808B5FFF7FF
:10221000E5FF054B9B68C3F3C223044AD35C03F07C
:102220001F03D84008BD00BF00100240D46A000858
:10223000F0B583B00446036813F4003F69D0874BC0
:102240009B6D13F0805F1ED1844B9A6D42F08052DB
:102250009A659B6D03F080530193019B0126804A90
:10226000136843F480731360FFF7A2FA05467C4BB2
:102270001B6813F4807F08D1FFF79AFA401B0228ED
:10228000F5D9032502E00026E9E7002545BB734B9D
:10229000D3F8903013F4407315D0226B9A4212D0C9
:1022A0006E4AD2F8903023F44073D2F8901041F483
:1022B0008031C2F89010D2F8901021F48031C2F829
:1022C0009010C2F8903013F0010F10D145B9634A55
:1022D000D2F8903023F44073216B0B43C2F8903056
:1022E000C6B15E4A936D23F08053936512E0FFF709
:1022F0005FFA0746594BD3F8903013F0020FE5D13F
:10230000FFF756FAC01B41F288339842F2D90325F1
:10231000DCE70025236813F0010F08D04F4AD2F8FC
:10232000883023F0030361680B43C2F888302368C8
:1023300013F0020F08D0494AD2F8883023F00C037A
:10234000A1680B43C2F88830236813F0040F08D04B
:10235000424AD2F8883023F03003E1680B43C2F8D8
:102360008830236813F0200F08D03C4AD2F8883018
:1023700023F4406321690B43C2F88830236813F4C7
:10238000007F08D0354AD2F8883023F44023216AF0
:102390000B43C2F88830236813F4806F08D02F4AAB
:1023A000D2F8883023F44013616A0B43C2F88830B6
:1023B000236813F0400F08D0284AD2F8883023F45D
:1023C000405361690B43C2F88830236813F0800FD3
:1023D00008D0224AD2F8883023F44043A1690B4345
:1023E000C2F88830236813F4807F08D01B4AD2F8E3
:1023F000883023F44033E1690B43C2F88830236806
:1024000013F4005F0CD0154AD2F8883023F04063F3
:10241000A16A0B43C2F88830A36AB3F1006F13D0EE
:10242000236813F4802F0CD00C4AD2F8883023F0A4
:102430004063E16A0B43C2F88830E36AB3F1006F8E
:1024400007D0284603B0F0BDD36843F48013D360AF
:10245000E6E7D36843F48013D360F2E7001002404C
:1024600000700040F0B482B000235BE086685F003B
:102470000325BD4026EA0506CD68BD40354385608D
:10248000466826EA04064D68C5F300149C403443B0
:10249000446055E0DD08083550F8257003F0070466
:1024A000A6000F24B44027EA04070C69B4403C435B
:1024B00040F8254058E0032400E00024B4403C43A9
:1024C0000235494E46F82540484CA568D44325EAD4
:1024D00002064F6817F4801F01D042EA0506434DFB
:1024E000AE60ED6804EA05064F6817F4001F01D0DE
:1024F00042EA05063D4DEE606D6804EA05064F6848
:1025000017F4003F01D042EA0506384D6E602D6891
:102510002C404E6816F4803F01D042EA0504334A4D
:10252000146001330A6832FA03F459D001249C4044
:102530002240F6D04D6805F00305013D012D95D9E7
:102540004C6804F00304032C09D0C5685E00032422
:10255000B44025EA04058C68B4402C43C4604C6840
:1025600004F00304022C95D005685E000324B440F7
:1025700025EA04054C6804F00304B4402C430460CD
:102580004C6814F4403FCCD0194C256E45F0010541
:102590002566246E04F001040194019C9D08AE1C84
:1025A000114C54F8267003F00304A6000F24B44025
:1025B00027EA0407B0F1904F3FF47FAF0D4CA042E3
:1025C0000AD004F58064A04208D004F58064A042DB
:1025D0003FF471AF072471E701246FE702246DE730
:1025E00002B0F0BC704700BF000001400004014091
:1025F0000010024000040048002331FA03F272D0B8
:10260000F0B52DE0032600E0002606FA04F4AC4203
:102610004DD005685C00032606FA04F425430560E6
:1026200023FA06F5083550F8256003F007074FEA4E
:10263000870C0F2707FA0CF726EA070640F82560F3
:10264000856825EA04058560456825EA020242603E
:10265000C26822EA0404C460013331FA03F241D0B3
:1026600001229A4012EA010EF6D04FEA930C0CF1C7
:1026700002051D4C54F8255003F00304A4000F2656
:1026800006FA04F73D40B0F1904FBDD0174EB0426E
:1026900009D006F58066B04207D006F58066B042E4
:1026A000B0D00726B1E70126AFE70226ADE7104C10
:1026B000256825EA0E052560656825EA0E05656032
:1026C000E56825EA0E05E560A56825EA0E05A56022
:1026D000054D0CF1020455F8246026EA070645F87A
:1026E000246096E7F0BD70470000014000040048F8
:1026F000000401400AB181617047816270474369FB
:1027000001EA030221EA030141EA024181617047C3
:1027100090F82530DBB2022B06D00423C3630023DC
:1027200080F82430012070470268136823F00E03FC
:1027300013600268136823F001031360436C03F015
:102740001C03016C012202FA03F34B6080F8252080
:10275000002380F824301846704708B590F82530DB
:10276000DBB2022B03D00423C363012008BD02683F
:10277000136823F00E0313600268136823F001034B
:102780001360436C03F01C03016C012202FA03F393
:102790004B6080F82520002380F82430836B13B130
:1027A00098470020E2E70020E0E70000024B1868AD
:1027B00000F4C060704700BF00700040B0F5007FBB
:1027C0000FD01F4B1B6803F4C063B3F5806F34D088
:1027D0001B4A136823F4C06343F480631360002032
:1027E0007047174B1B6803F4C063B3F5007F20D01C
:1027F000134A136823F4C06343F400731360114B4E
:102800001A68322303FB02F30F4AA2FB03239B0C3B
:10281000013300E0013B0A4A526912F4806F01D093
:10282000002BF7D1064B5B6913F4806F03D10020B6
:10283000704700207047032070470020704700BF9A
:10284000007000402000002083DE1B430C4A136808
:1028500023F0070343F0010313600A4A136943F0AE
:1028600004031361012808D040BF20BF20BF054AE0
:10287000136923F004031361704730BFF7E700BF0B
:102880000070004000ED00E0074AD36823F4E063E5
:102890001B041B0C000200F4E060034343F0BF6321
:1028A00043F40033D360704700ED00E030B4174BC1
:1028B000DB68C3F30223C3F10704042C28BF0424FC
:1028C0001D1D062D18D9033B4FF0FF3505FA04F402
:1028D00021EA0401994005FA03F322EA03031943AC
:1028E00000280BDB0901C9B200F1604000F561402E
:1028F00080F8001330BC70470023E5E700F00F00BC
:102900000901C9B2024B1954F4E700BF00ED00E021
:1029100014ED00E0002807DB00F01F02400901234E
:102920009340024A42F82030704700BF00E100E0C7
:102930000138B0F1807F0AD2064B5860064AF02178
:1029400082F823100020986007221A607047012047
:10295000704700BF10E000E000ED00E02DE9F04717
:1029600082B00546884617461E46FEF721FF0A9BA1
:102970001B1A03EB0609FEF71BFF82462A4B1B6856
:10298000C3F3CB3309FB03F301932B689C6838EA4C
:1029900004030CBF01240024BC4240D0B6F1FF3F29
:1029A000F3D0FEF705FFA0EB0A0048450AD2B9F1C3
:1029B000000F07D0019A02B14A46019B013B0193E7
:1029C0009146E2E72A68536823F0E00353606B689E
:1029D000B3F5827F0BD0AB6AB3F5005F14D001234F
:1029E00085F85D30002385F85C30032018E0AB6883
:1029F000B3F5004F02D0B3F5806FECD12A681368AD
:102A000023F040031360E6E72A68136823F40053B9
:102A100013602A68136843F400531360DFE7002053
:102A200002B0BDE8F08700BF200000202DE9F04F84
:102A300083B007460D461646984600238DF80330AE
:102A4000FEF7B6FE0C9B1B1A03EB0809FEF7B0FE5F
:102A50008246D7F800B0314B1B6803EB8303C3EB0E
:102A6000C3031B0D09FB03F3019302E0B8F1FF3F21
:102A700011D13B689C682C40B4424AD0B5F5C06F78
:102A8000F4D1002EF2D19BF80C30DBB28DF803307C
:102A90009DF80330EAE7FEF78BFEA0EB0A004845FD
:102AA0000AD2B9F1000F07D0019A02B14A46019B40
:102AB000013B01939146DCE73A68536823F0E00359
:102AC00053607B68B3F5827F0BD0BB6AB3F5005FC0
:102AD00014D0012387F85D30002387F85C30032091
:102AE00018E0BB68B3F5004F02D0B3F5806FECD1AE
:102AF0003A68136823F040031360E6E73A68136806
:102B000023F4005313603A68136843F400531360CE
:102B1000DFE7002003B0BDE8F08F00BF20000020F9
:102B200070B582B004460D46164600920B46002250
:102B30004FF4C051FFF77AFFB0B900962B46002240
:102B400080212046FFF70AFFA8B900962B460022F5
:102B50004FF4C0612046FFF769FF50B1236E43F088
:102B600020032366032004E0236E43F02003236642
:102B7000032002B070BD236E43F0200323660320C0
:102B8000F7E770B582B004460D4616464368B3F5C4
:102B9000827F0DD000962B46002280212046FFF731
:102BA000DDFE90B96368B3F5827F14D002B070BDCA
:102BB0008368B3F5004F02D0B3F5806FEAD1226885
:102BC000136823F040031360E4E7236E43F020030F
:102BD00023660320EAE7A368B3F5004F02D0B3F5FC
:102BE000806FE3D100962B4600224FF4C06120464F
:102BF000FFF71CFF0028D9D0236E43F02003236683
:102C00000320D3E700286AD010B50446436A33B9DD
:102C10004368B3F5827F05D00023C36102E000233F
:102C2000036143610023A36294F85D30002B4DD013
:102C3000022384F85D302268136823F04003136098
:102C4000E368B3F5E06F47D90022B3F5706F04D0A5
:102C5000B3F5E06F01D00023A362636803F48273CD
:102C6000A16801F404410B43216901F002010B4307
:102C7000616901F001010B43A16901F400710B438B
:102C8000E16901F038010B43216A01F080010B4337
:102C9000A16A01F4005120680B430360638B03F0C9
:102CA0000403616A01F010010B43616B01F008013C
:102CB0000B43E16801F470610B43216813434B60DF
:102CC00000202066012384F85D3010BD84F85C305C
:102CD0002046FEF7A5F8ABE74FF48052B5E7012098
:102CE000704790B110B50446022380F85D30026849
:102CF000136823F040031360FEF7F2F8002020660B
:102D000084F85D0084F85C0010BD012070472DE957
:102D1000F04383B01D4690F85C30012B00F0F18049
:102D2000044688469146012380F85C30FEF740FD5A
:102D3000074694F85D60F6B2012E40F0CF80B8F1FE
:102D4000000F00F0CC80B9F1000F00F0C880032321
:102D500084F85D3000232366C4F83880A4F83C90E2
:102D6000A4F83E902364A4F84430A4F846302365C8
:102D7000E364A368B3F5004F1ED023681A6812F00D
:102D8000400F03D11A6842F040021A60E368B3F5BD
:102D9000E06F3DD9636813B1B9F1010F23D1A26B84
:102DA00023681288DA60A36B0233A363E38F9BB2BC
:102DB000013B9BB2E38716E02268136823F04003CF
:102DC00013602268136843F480431360D5E7FEF76D
:102DD000EFFCC01BA84203D3B5F1FF3F40F0898050
:102DE000002D00F08880E38F9BB2002B61D0236818
:102DF0009A6812F0020FEAD0A26B1288DA60A36B15
:102E00000233A363E28F92B2013A92B2E287EAE719
:102E1000636813B1B9F1010F33D1E38F9BB2012B7A
:102E20000CD9A26B23681288DA60A36B0233A36308
:102E3000E38F9BB2023B9BB2E38722E0A26B236845
:102E400012781A73A36B0133A363E38F9BB2013B28
:102E50009BB2E38715E0A36B1B781373A36B01335D
:102E6000A363E38F9BB2013B9BB2E38709E0FEF7CC
:102E70009FFCC01BA84202D3B5F1FF3F3DD1002DFE
:102E80003DD0E38F9BB2A3B12268936813F0020F89
:102E9000EDD0E38F9BB2012BDDD9A36B1B88D360F0
:102EA000A36B0233A363E38F9BB2023B9BB2E38726
:102EB000E7E73A4629462046FFF732FE08B12023CD
:102EC0002366A36833B901932368DA6801929B688B
:102ED0000193019B236E13B9002600E00226012313
:102EE00084F85D30002384F85C30304603B0BDE8E0
:102EF000F0830326F3E70326F1E70326EFE7032633
:102F0000EDE70226F1E72DE9F8431F46089D90F80A
:102F10005C30012B00F06481044688469146012311
:102F200080F85C30FEF744FC064694F85D30DBB276
:102F30006268012B0AD0B2F5827F40F03881A26826
:102F4000002A40F03D81042B40F03C81B8F1000F95
:102F500000F03A81B9F1000F00F03881002F00F045
:102F6000378194F85D30DBB2042B02D0052384F85E
:102F70005D3000232366C4F84090A4F84670A4F89E
:102F80004470C4F83880E787A787E3642365E36863
:102F9000B3F5E06F01D8012F23D92268536823F4D9
:102FA0008053536023681A6812F0400F03D11A68E7
:102FB00042F040021A60E368B3F5E06F58D96368E5
:102FC0000BB1012F0BD1A26B23681288DA60A36BBF
:102FD0000233A363E38F9BB2013B9BB2E3870127DC
:102FE00025E02268536843F480535360DAE723688E
:102FF0009A6812F0010F11D0B4F8462092B26AB16B
:10300000DA68236C1A80236C02332364B4F84630E8
:103010009BB2013B9BB2A4F846300127FEF7C8FBE8
:10302000831BAB4203D3B5F1FF3F40F0D380E38F66
:103030009BB22BB9B4F846309BB2002B00F0AD80A8
:1030400023689A6812F0020FD1D0E28F92B2002A60
:10305000CDD0002FCBD0A26B1288DA60A36B0233E5
:10306000A363E38F9BB2013B9BB2E3870027BEE7DC
:1030700063680BB1012F0FD1E38F9BB2012B0DD9E8
:10308000A26B23681288DA60A36B0233A363E38F19
:103090009BB2023B9BB2E387012749E0A26B236806
:1030A00012781A73A36B0133A363E38F9BB2013BC6
:1030B0009BB2E387F0E7E28F92B2012A0CD9A26BB0
:1030C0001288DA60A36B0233A363E38F9BB2023BE7
:1030D0009BB2E38700273DE0A26B12781A73A36BC3
:1030E0000133A363E38F9BB2013B9BB2E3870027CD
:1030F00030E02268536843F48053536001270DE0A9
:10310000226C1B7B1370236C01332364B4F84630AC
:103110009BB2013B9BB2A4F846300127FEF748FB67
:10312000801BA84202D3B5F1FF3F55D1002D55D0E9
:10313000E38F9BB223B9B4F846309BB2002B2CD05E
:1031400023689A6812F0020F04D0E28F92B20AB19B
:10315000002FB0D123689A6812F0010FDED0B4F8C6
:10316000462092B2002AD9D0B4F8462092B2012A61
:10317000C6D9DA68236C1A80236C02332364B4F84E
:1031800046309BB2023B9BB2A4F84630B4F84630BE
:103190009BB2012BADD90127C0E732462946204614
:1031A000FFF7BEFC20B120232366012000E00220AF
:1031B000012384F85D30002384F85C30BDE8F88397
:1031C0000220F5E70220F3E70120F1E70120EFE715
:1031D0000120EDE70320EBE70320E9E70320E7E721
:1031E0000220EBE72DE9F04383B004468846914680
:1031F0001D464368B3F5827F43D094F85C30012BC1
:1032000000F0BF80012384F85C30FEF7D1FA074656
:1032100094F85D60F6B2012E40F0A080B8F1000F86
:1032200000F09D80B9F1000F00F09980042384F82C
:103230005D3000232366C4F84080A4F84490A4F8CD
:103240004690A363A387E387E3642365E368B3F54C
:10325000E06F23D92268536823F480535360A36836
:10326000B3F5004F20D023681A6812F0400F03D145
:103270001A6842F040021A60E368B3F5E06F28D99B
:1032800049E08368002BB8D1042380F85D300095B5
:1032900013460A46FFF737FE064666E02268536883
:1032A00043F480535360DAE72268136823F0400345
:1032B00013602268136823F480431360D3E7FEF79A
:1032C00077FAC01BA84202D3B5F1FF3F51D1002DC0
:1032D00051D0B4F846309BB2002B33D023689A68A3
:1032E00012F0010FEBD0226C1B7B1370236C0133A7
:1032F0002364B4F846309BB2013B9BB2A4F846303D
:10330000E7E7FEF755FAC01BA84202D3B5F1FF3F2D
:1033100033D1002D33D0B4F846309BB293B123683B
:103320009A6812F0010FECD0DA68236C1A80236CD3
:1033300002332364B4F8462092B2013A92B2A4F860
:103340004620E8E73A4629462046FFF71AFC08B12E
:1033500020232366236E13B9002600E002260123F2
:1033600084F85D30002384F85C30304603B0BDE85B
:10337000F0830326F3E70326F1E70326EFE70326AE
:10338000EDE70226F1E7026852E8003F23F490736C
:1033900042E800310029F6D1026802F1080353E83F
:1033A000003F23F00103083242E800310029F3D145
:1033B000036E012B05D02023C367002303664366F9
:1033C0007047026852E8003F23F0100342E80031E2
:1033D0000029F6D1EFE7704708B5026852E8003FD0
:1033E00023F0400342E800310029F6D1202383670F
:1033F00000238366FFF7EFFF08BD7047704708B5ED
:10340000806A0023A0F85A30A0F85230FFF7F6FF88
:1034100008BD000070B504460168CB6908688D6876
:1034200040F60F021A4005D113F0200F02D010F021
:10343000200F20D12AB115F0010222D1AC4E30422A
:103440001FD1226E012A00F0AB8013F4801F03D03D
:1034500015F4800F40F0398113F0800F03D010F085
:10346000800F40F0398113F0400F03D010F0400F6F
:1034700040F0398170BD636E002BFBD02046984729
:10348000F8E713F0010F09D010F4807F06D0012572
:103490000D62D4F880102943C4F8801013F0020F95
:1034A00009D042B1216802250D62D4F8801041F0A4
:1034B0000401C4F8801013F0040F09D042B1216850
:1034C00004250D62D4F8801041F00201C4F8801088
:1034D00013F0080F0BD010F0200F00D13AB1226882
:1034E00008211162D4F880200A43C4F8802013F424
:1034F000006F0CD010F0806F09D022684FF400618B
:103500001162D4F8802042F02002C4F88020D4F860
:103510008020002AAED013F0200F06D010F0200F2C
:1035200003D0636E0BB120469847D4F880202368FF
:103530009B6813F0400F02D112F0280F29D02046CB
:10354000FFF721FF23689B6813F0400F1DD022680E
:1035500002F1080353E8003F23F04003083242E839
:1035600000310029F3D1236F5BB1624A9A63206F67
:10357000FFF7F3F800283FF47DAF206F836B984787
:1035800078E72046FFF73AFF74E72046FFF736FF5B
:1035900070E72046FFF732FF0023C4F8803069E768
:1035A00013F0100F3FF451AF10F0100F3FF44DAF78
:1035B00010230B6223689B6813F0400F4ED0226FDC
:1035C00013685B689BB2002B3FF454AFB4F85810FB
:1035D00099427FF64FAFA4F85A3013681B6813F076
:1035E000200F30D1226852E8003F23F4807342E874
:1035F00000310029F6D1226802F1080353E8003FA8
:1036000023F00103083242E800310029F3D1226897
:1036100002F1080353E8003F23F04003083242E878
:1036200000310029F3D12023E367002323662268B9
:1036300052E8003F23F0100342E800310029F6D1A0
:10364000206FFFF765F8B4F85810B4F85A309BB201
:10365000C91A89B22046FDF77BF80BE7B4F8581079
:10366000B4F85A309BB2C91A89B2B4F85A309BB236
:10367000002B3FF4FFAE00293FF4FCAE226852E875
:10368000003F23F4907342E800300028F6D122680E
:1036900002F1080353E8003F23F00103083242E837
:1036A00000300028F3D12023E367002323666366FC
:1036B000226852E8003F23F0100342E8003000285F
:1036C000F6D12046FDF744F8D4E64FF480130B62A0
:1036D000204600F034FCCDE6A36E002B3FF4CAAECA
:1036E00020469847C6E62046FFF776FEC2E600BFB2
:1036F00020010004FF33000808B5B0F85C30C26F49
:10370000222A06D00268138B9BB243F0080313836E
:1037100008BD0268918CDBB2426D0B401370436DA3
:1037200001334365B0F85A309BB2013B9BB2A0F81D
:103730005A30B0F85A309BB2002BE9D1026852E8F7
:10374000003F23F4907342E800310029F6D102686B
:1037500002F1080353E8003F23F00103083242E876
:1037600000310029F3D12023C36700234366036E91
:10377000012B16D100230366026852E8003F23F0B4
:10378000100342E800310029F6D10368DA6912F02B
:10379000100F01D010221A62B0F85810FCF7D8FFB1
:1037A000B6E7FFF72AFEB3E708B5B0F85C30C26FA2
:1037B000222A06D00268138B9BB243F008031383BE
:1037C00008BD0268918C426D0B401380436D02333B
:1037D0004365B0F85A309BB2013B9BB2A0F85A3017
:1037E000B0F85A309BB2002BEAD1026852E8003F91
:1037F00023F4907342E800310029F6D1026802F107
:10380000080353E8003F23F00103083242E8003187
:103810000029F3D12023C36700234366036E012BE5
:1038200016D100230366026852E8003F23F010031C
:1038300042E800310029F6D10368DA6912F0100F6E
:1038400001D010221A62B0F85810FCF781FFB7E7D8
:10385000FFF7D3FDB4E70000D0B5044601688368E4
:103860000269134342691343C269134308689A4AC1
:10387000024013430B602268536823F44053E1680D
:103880000B435360A1692268944B9A4201D0236A8A
:103890001943936823F430630B4393602268904B81
:1038A0009A421FD08F4B9A4230D08F4B9A4246D0CB
:1038B0008A4B9A4255D0102388498A427AD0E069CF
:1038C000B0F5004F00F0A580082B00F2FB80DFE888
:1038D00013F0CD00E000CB00F900E300F900F9009F
:1038E000F900E60003F55843D3F8883003F00303EA
:1038F000032B09D8DFE803F002044A060123DBE7C3
:103900000423D9E70823D7E71023D5E703F5E633E7
:10391000D3F8883003F00C030C2B0ED8DFE803F04B
:10392000070D0D0D090D0D0D380D0D0D0B000023AC
:10393000C2E70423C0E70823BEE71023BCE703F572
:10394000E433D3F8883003F03003202B22D004D89E
:1039500013B3102B22D10423AEE7302B20D1082340
:10396000AAE703F5C833D3F8883003F44063B3F50E
:10397000006F17D005D8BBB1B3F5806F16D1042303
:103980009AE7B3F5406F13D1082395E7022393E735
:10399000022391E702238FE700238DE710238BE7B3
:1039A000102389E7022387E7002385E7102383E7B5
:1039B000102381E7082B75D8DFE803F00874297419
:1039C0002674747405004FF4004003E0FEF70CFC0D
:1039D000002869D0626802EB4203834266D8B0EBEC
:1039E000023F65D80023070E06025008301847F141
:1039F0000001FCF745FCA0F540723C4B9A4259D8B7
:103A00002368D860002062E0FDF75CFFE0E73848FB
:103A1000E0E7082B50D8DFE803F00721054F244FDB
:103A20004F4F0B00324803E0FEF7DEFB002845D085
:103A30006268530803EB4000B0FBF2F0A0F1100203
:103A40004FF6EF739A423BD883B223F00F03C0F3D3
:103A5000420018432368D860002038E0FEF7D6FB08
:103A6000E4E7FDF72FFFE1E7214802E0FEF7BCFBAA
:103A700050B3636800EB5300B0FBF3F0A0F1100209
:103A80004FF6EF739A4221D8236880B2D8600020A5
:103A90001DE0FEF7BBFBEBE7FDF714FFE8E74FF493
:103AA0000040E6E7012012E0002010E001200EE0D7
:103AB00001200CE001200AE0012008E0002006E0DF
:103AC000012004E0012002E0002000E001200023AA
:103AD0006366A366D0BD00BFF369FFEF00800040BE
:103AE000003801400044004000480040FFFC0F0047
:103AF0000024F400436A13F0010F06D002685368F3
:103B000023F40033816A0B435360436A13F0020FBE
:103B100006D00268536823F48033C16A0B435360B4
:103B2000436A13F0040F06D00268536823F480231D
:103B3000016B0B435360436A13F0080F06D0026811
:103B4000536823F40043416B0B435360436A13F003
:103B5000100F06D00268936823F48053816B0B43E7
:103B60009360436A13F0200F06D00268936823F431
:103B70000053C16B0B439360436A13F0400F0AD0AC
:103B80000268536823F48013016C0B435360036C89
:103B9000B3F5801F0BD0436A13F0800F06D0026884
:103BA000536823F40023816C0B4353607047026811
:103BB000536823F4C003416C0B435360EBE72DE9DA
:103BC000F84305460F4616469946DDF820802C68D6
:103BD000E46937EA04030CBF01240024B44253D142
:103BE000B8F1FF3FF3D0FDF7E3FDA0EB090040453E
:103BF0002DD8B8F1000F2AD02B681A6812F0040FE4
:103C0000E5D0DA6912F4006FE1D04FF400621A6275
:103C10002A6852E8003F23F4D07342E800310029BB
:103C2000F6D12A6802F1080353E8003F23F00103AC
:103C3000083242E800310029F3D12023AB67EB675B
:103C4000C5F88030002385F8743003201DE02A6811
:103C500052E8003F23F4D07342E800310029F6D146
:103C60002A6802F1080353E8003F23F001030832F9
:103C700042E800310029F3D12023AB67EB67002332
:103C800085F87430032000E00020BDE8F8832DE9BA
:103C9000F04182B01E46836F202B56D104460D465C
:103CA0009046002955D0002A55D090F87430012B49
:103CB00053D0012380F874300023C0F880302123D2
:103CC0008367FDF775FD0746A4F85080A4F852807D
:103CD000A368B3F5805F05D04FF00008002384F897
:103CE000743014E0236913B14FF00008F6E7A846DA
:103CF0000025F3E738F8023B2268C3F30803138575
:103D0000B4F8522092B2013A92B2A4F85220B4F818
:103D100052309BB273B100963B4600228021204670
:103D2000FFF74DFFD8B9002DE4D0236815F8012B1B
:103D30001A85E5E700963B46002240212046FFF722
:103D40003EFF70B92023A36700E0022002B0BDE867
:103D5000F0810120FAE70120F8E70220F6E70320CE
:103D6000F4E70320F2E730B583B004460023C0F83F
:103D70008030FDF71DFD054623681B6813F0080F12
:103D80000DD123681B6813F0040F16D12023A367FD
:103D9000E3670020206684F8740003B030BD6FF044
:103DA0007E430093034600224FF400112046FFF7A4
:103DB00006FF0028E5D00320EFE76FF07E43009375
:103DC0002B4600224FF480012046FFF7F8FE002822
:103DD000DCD00320E1E768B310B50446836F03B37A
:103DE0002423A3672268136823F00103136020468D
:103DF000FFF732FD012813D0636ABBB9226853680C
:103E000023F4904353602268936823F02A0393605D
:103E10002268136843F0010313602046FFF7A3FFF5
:103E200010BD80F87430FDF783F8D9E72046FFF71E
:103E300061FEE3E7012070474165A0F85820A0F833
:103E40005A20002343668368B3F5805F06D0A3B988
:103E5000036973B9FF23A0F85C3014E0036923B948
:103E600040F2FF13A0F85C300DE0FF23A0F85C30B7
:103E700009E07F23A0F85C3005E0B3F1805F29D032
:103E80000023A0F85C300023C0F880302223C367F1
:103E9000026802F1080353E8003F43F001030832CF
:103EA00042E800310029F3D18368B3F5805F1BD06D
:103EB000154B4366002380F874300369D3B1026860
:103EC00052E8003F43F4907342E800310029F6D1F4
:103ED0000020704703691BB97F23A0F85C30D2E74C
:103EE0003F23A0F85C30CEE70369002BE0D1074BFD
:103EF0004366DFE7026852E8003F43F0200342E8F0
:103F000000310029F6D1E3E7F9360008A9370008A7
:103F100082B002AB03E906000268536823F0100385
:103F2000BDF804100B4353600268536823F07F43CD
:103F30009DF8061043EA0163536002B07047704772
:103F400010B584B004AB03E9060090F87430012B7F
:103F500033D00446012380F8743024238367026839
:103F6000136823F00103136001688B6823F4401386
:103F7000029A13438B60A2B12268136843F00103D5
:103F80001360FDF715FC03466FF07E42009200229D
:103F90004FF480012046FFF712FE40B92023A367AB
:103FA00006E004AB13E90600FFF7B2FFE4E70320E5
:103FB000002384F8743004B010BD0220FBE790F8B1
:103FC0007430012B10D0012380F87430026852E85D
:103FD000003F43F0020342E800310029F6D10023FC
:103FE00080F87430184670470220704790F874309B
:103FF000012B10D0012380F87430026852E8003F92
:1040000023F0020342E800310029F6D1002380F8B2
:1040100074301846704702207047C36F202B20D1A0
:1040200010B50446F9B102B390F87430012B1ED0DC
:10403000012380F874300366FFF7FEFEB0B9236EEB
:10404000012B01D0012011E0236810221A6222689E
:1040500052E8003F43F0100342E800310029F6D156
:1040600004E002207047012000E0012010BD022082
:10407000FCE70000034AD2F8883043F47003C2F82A
:104080008830704700ED00E000B583B0C0B1062372
:104090008DF80730002220214FF09040FEF72AFBD8
:1040A0000A2301220DF107010748FEF730FE012225
:1040B00020214FF09040FEF71DFB03B05DF804FB9C
:1040C00004238DF80730E5E7B80A002000B583B077
:1040D000C0B1B9238DF80730002220214FF0904065
:1040E000FEF708FB0A2301220DF107010D48FEF738
:1040F0000EFE012220214FF09040FEF7FBFA03B0A4
:104100005DF804FB002220214FF09040FEF7F2FA08
:104110000120FDF753FB012220214FF09040FEF7D4
:10412000E9FAECE7B80A002030B585B002238DF833
:1041300004301D4B1B78032B34D9020E8DF805205B
:104140000222022B07D9541CC0F3074304AD2A44B2
:1041500002F80C3CE2B2541CC0F3072504AB134434
:1041600003F80C5C931C04AD55FA84F404F80C0CB1
:104170000332D4B255FA83F303F80C1C0022202139
:104180004FF09040FEF7B6FA0A23224601A90748ED
:10419000FEF7BDFD012220214FF09040FEF7AAFA64
:1041A00005B030BD0122CCE778140020B80A002009
:1041B00070B506460D460120FFF766FF002428462D
:1041C000FCF706F8A04206D93068295D2044FFF7C5
:1041D000ABFF0134F3E73368184430600020FFF789
:1041E00053FF002070BD000030B585B003238DF86B
:1041F0000430204B1B78032B39D9020E8DF8052093
:104200000222022B07D9511CC0F3074304AC2244FD
:1042100002F80C3CCAB2531CC0F3072404A9114491
:1042200001F80C4C0232D4B204AA52FA83F303F818
:104230000C0C002220214FF09040FEF75BFA0E4D4F
:104240000A23224601A92846FEF761FD0A2301221E
:104250000DF103012846FEF7C5FF012220214FF092
:104260009040FEF747FA9DF8030005B030BD0122EB
:10427000C7E700BF78140020B80A002030B5CDB0E1
:104280000546002401944FF49472214602A801F0DF
:10429000C3FD2868FFF7A8FF01AB18552B68013351
:1042A0002B600A2801D00134F3E701A84DB030BDDE
:1042B00070B582B005460C469F238DF8073000226A
:1042C000009220214FF09040FEF714FA174E0A2377
:1042D00001220DF107013046FEF719FD0A230422E1
:1042E00069463046FEF77EFF012220214FF09040C4
:1042F000FEF700FA9DF801307F2B0BD09DF80030BF
:104300002B709DF801209DF8023003EB02232380DF
:1043100002B070BD9DF800302B709DF802209DF812
:10432000033003EB02232380F2E700BFB80A00202A
:10433000014B1870704700BF7814002008B5064B79
:1043400093F85D30DBB2012B01D0002008BD0320C3
:10435000FFF7EEFF0120F9E7B80A002008B5044B8B
:1043600003EB8002526852680344187A904708BDF4
:10437000D401002008B5084B1B5C53B9064B012241
:104380001A5403EB8002526812681844007A90476E
:1043900008BD0020FCE700BFD401002038B5044C64
:1043A00004EB80056D68AD680444207AA84738BDE9
:1043B000D401002038B5044C04EB80056D68ED682D
:1043C0000444207AA84738BDD401002010B5044B1E
:1043D00003EB8004646824690344187AA04710BD85
:1043E000D40100204278007840EA02207047C27869
:1043F000837843EA0222437843EA0223007840EAC2
:10440000032070470170090A417070470170C1F3C1
:1044100007234370C1F307438370090EC1707047CF
:1044200010B414462AB10A78013102700130013CFF
:10443000F9D15DF8044B704701700130013AFBD1AE
:10444000704710B40446207801340B780131C01A4B
:10445000013A01D00028F6D05DF8044B70470346BE
:10446000187818B1884201D00133F9E7704700008D
:1044700030B400252B4601E001250133012B15D86E
:104480001A01174CA258002AF6D00468A242F4D1AF
:10449000134A02EB0312546882689442EDD1104A29
:1044A00002EB0312946842699442E6D1022B0AD0CF
:1044B000A1B90B4A02EB03139B89B3F5807F0BD0A4
:1044C000002030BC70472DB9022901D01220F8E736
:1044D0000020F6E70020F4E71020F2E71020F0E7D4
:1044E000B0010020002000E00130012804D80301C1
:1044F000034AD358002BF7D1023818BF0120704768
:10450000B001002070B4002300E00133012B13D868
:104510001A01244CA45802689442F6D1214A02EBB5
:104520000312546882689442EFD11E4A02EB0312D0
:10453000946842699442E8D1022B13D021B1194A00
:1045400002EB0312928952BB21BB164A02EB031203
:104550009189013189B2134A02EB03129181581CEF
:1045600070BC70470023012B05D81A010D4CA258CE
:104570000AB10133F7E7022B0FD00668094D1C0181
:1045800005EB03122E51846854604069906000204E
:104590009081D3E74FF48071DDE70020E0E7002051
:1045A000DEE700BFB00100200138012815D80D4B0F
:1045B00003EB00139B89B3F5807F03D01BB1013B54
:1045C0009BB200E00023074A02EB0012938133B94B
:1045D00003010020034AD05070470220704700209A
:1045E000704700BFB0010020002303E05DF8044BDA
:1045F00070470133012B11D81A0109498A588242A8
:10460000F7D110B41A0100248C500133012BEDD8DE
:104610001A0103498A588242F7D1F3E7704700BF75
:10462000B001002002394369023B8B4204D943891F
:10463000806A01FB03007047002070470268C36A6C
:104640000433490A5289B1FBF2F1186830B1814252
:1046500002D3091A0833F8E758680844704770B560
:1046600006460D4601F11A00FFF7BCFE3378032B16
:1046700000D070BD044605F11400FFF7B3FE44EA14
:104680000040F6E770B506460C46154691B204F1B7
:104690001A00FFF7B7FE3378032B00D070BD290C4A
:1046A00004F11400FFF7AEFEF8E700002DE9F84F23
:1046B00081468A460F6800F1240B0B2220215846C0
:1046C000FFF7BAFE002633464FF008082CE001350C
:1046D0007B5D2F2BFBD05C2BF9D03D44CAF80050FA
:1046E000002E43D099F82430E52B35D0202C37D834
:1046F000042389F82F30002028E008264FF00B080B
:1047000011E014F0800F23D121461948FFF7A7FECE
:1047100050BBA4F16103DBB2192B01D8203CE4B2F9
:104720000BF8064001362B465D1CFC5C202CD4D9CE
:104730002F2CCDD05C2CCBD02E2C01D0B045E0D886
:10474000B8F10B0F0ED02E2CD7D00620BDE8F88F75
:10475000803C084B1C5DD7E7052389F82430C5E76A
:104760000023C6E70620F1E70620EFE70620EDE785
:104770000C6B00081C6B00080146006808B102467B
:1047800003E04FF0FF30704701321378202B01D93E
:104790003A2BF9D13A2B01D00020704710B40346D0
:1047A00013F8010B3038092808D89A4202D04FF08C
:1047B000FF3005E038B901320A6001E04FF0FF3008
:1047C0005DF8044B70474FF0FF30F9E738B50D4600
:1047D000044698B103689BB11A78A2B18188DA883F
:1047E000914203D0092000242C6038BD5878FFF78F
:1047F000B5FD10F0010009D12468F5E70920F3E7C1
:104800001C460920F0E709200024EDE709200024D8
:10481000EAE72DE9F041C57815B92846BDE8F081F1
:104820000446C76A00F1300801233A464146407801
:10483000FFF7C0FD054698B90023E370236AFB1A11
:10484000A2699342E9D2A678012EE6D9A3691F4452
:1048500001233A4641466078FFF7ACFD013EF3E79D
:104860000125DAE770B5C36A8B4202D100263046D3
:1048700070BD04460D46FFF7CCFF06460028F6D172
:1048800001232A4604F130016078FFF787FD10B15B
:1048900001264FF0FF35E562E9E7000038B5044630
:1048A0000023C3704FF0FF33C362FFF7DBFF30BB61
:1048B000054604F22E20FFF795FD4AF6552398424F
:1048C0001FD194F83030E92B07D0236B03F0FF138E
:1048D0000D4A934201D0022514E004F16600FFF76F
:1048E00086FD20F07F40094B98420BD004F18200F6
:1048F000FFF77DFD064B984204D0022502E0042517
:1049000000E00325284638BDEB00900046415400E6
:10491000464154332DE9F04F85B00D46164600232D
:104920000B60FFF729FF071EC0F24481B54B53F817
:104930002740002C00F043812C6006F0FE0623780F
:1049400073B16078FFF70AFD10F0010508D1002E61
:1049500000F0318110F0040F00F02D810A252AE1CA
:1049600000232370F8B26070FFF704FD10F001051A
:1049700040F027811EB110F0040F40F02481002187
:104980002046FFF78BFF022800F0B680002704289E
:1049900000F01B81012800F21A8104F13B00FFF7AF
:1049A00021FDB0F5007F40F0148104F14600FFF7CF
:1049B00019FD064620B904F15400FFF718FD06461C
:1049C000A66194F84020A270531EDBB2012B00F2C6
:1049D000028106FB02F894F83D90A4F80A90B9F120
:1049E000000F00F0FA8009F1FF3319EA030F40F0DD
:1049F000F68004F14100FFF7F5FC8246208110F0BB
:104A00000F0F40F0EE8004F14300FFF7EBFC83460C
:104A100020B904F15000FFF7EAFC834604F13E00A0
:104A2000FFF7E0FC0246002800F0DD8000EB080301
:104A300003EB1A139B45C0F0D880ABEB030BBBFB19
:104A4000F9F1CB45C0F0D3804FF6F57081426BD9B8
:104A50004FF0030B40F6F570814201D84FF0010B87
:104A600001F10209C4F81490E7613A4422623B4420
:104A7000A362BBF1030F5AD0BAF1000F00F0BD8062
:104A800042446262BBF1020F62D009EB490309F0B4
:104A9000010909EB530909F2FF19B6EB592FC0F0D0
:104AA000AE804FF0FF332361E36080232371BBF1BD
:104AB000030F50D084F800B0534A138801339BB2DF
:104AC0001380E3802046FFF78FFD74E0002004ABE5
:104AD00003EB860343F8100C0136032E0ED804F1C5
:104AE0003000330103F5DF7318440379002BEDD058
:104AF0000830FFF77CFCEAE70026EEE700260AE034
:104B000039462046FFF7CAFE01287FF640AF01363E
:104B1000032E3FF63CAF04AB03EB860353F8107C47
:104B2000002FEDD10320F2E74FF0020B92E704F1E2
:104B30005A00FFF757FC00285BD1BAF1000F5AD199
:104B400004F15C00FFF753FC60624FEA8909A2E7B9
:104B50004FEA49099FE704F16000FFF743FC012891
:104B6000A8D1791C2046FFF77DFE0028A2D10023A2
:104B7000237104F22E20FFF735FC4AF655239842A4
:104B800098D104F13000FFF732FC204B984291D1CC
:104B900004F50570FFF72BFC1D4B98428AD104F5F4
:104BA0000670FFF724FC206104F50770FFF71FFC77
:104BB000E0607FE70B25284605B0BDE8F08F0C25A7
:104BC000F9E70325F7E70A25F5E70125F3E70D25C2
:104BD000F1E70D25EFE70D25EDE70D25EBE70D25B9
:104BE000E9E70D25E7E70D25E5E70D25E3E70D25C9
:104BF000E1E70D25DFE70D25DDE70D25DBE70D25D9
:104C0000D9E700BFAC010020D00100205252614121
:104C1000727241612DE9F04701297ED907460C46A1
:104C2000164643698B427AD90378022B45D0032B71
:104C300057D0012B03D002252846BDE8F08701EBB1
:104C40005108016A01EB5821FFF70CFE05460028C8
:104C5000F2D107F1300A08F10109C8F3080814F08D
:104C600001041FD01AF9083003F00F03320102F4D7
:104C70007F621343DBB20AF808300123FB70396A04
:104C800001EB59213846FFF7EDFD05460028D3D149
:104C9000C9F3080944B1C6F307120AF80920012331
:104CA000FB70C9E7F3B2E6E71AF9092022F00F0218
:104CB000C6F303263243D2B2EFE7016A01EB1421B7
:104CC000FFF7D0FD05460028B6D107F1300064009B
:104CD00004F4FF74B1B22044FFF794FB0123FB708E
:104CE000AAE7016A01EBD411FFF7BCFD05460028D5
:104CF000A2D126F0704607F13003A40004F4FE743C
:104D00001C442046FFF773FB00F0704131432046FE
:104D1000FFF77CFB0123FB708EE702258CE7022561
:104D20008AE7F8B50568012956D90C466B698B42AC
:104D300054D92B78022B2DD0032B3BD0012B01D043
:104D400001204AE001EB5106296A01EB5621284671
:104D5000FFF788FD10B14FF0FF303EE0771CC6F33F
:104D600008062E4496F83060296A01EB5721284640
:104D7000FFF778FDA0BBC7F308073D4495F8300066
:104D800046EA002014F0010F01D0000925E0C0F32D
:104D90000B0022E0296A01EB14212846FFF762FD8F
:104DA00008BB05F13000640004F4FF742044FFF7F1
:104DB00019FB12E0296A01EBD4112846FFF752FDD6
:104DC000A0B905F13000A40004F4FE742044FFF7FC
:104DD0000EFB20F0704000E00120F8BD0120FCE750
:104DE0004FF0FF30F9E74FF0FF30F6E74FF0FF30BC
:104DF000F3E72DE9F041D0F80080B1F5001F42D271
:104E000006460F4611F01F0F3FD1416184682CB94F
:104E100098F80030022B01D9D8F82440B4B9B8F87A
:104E20000830B3EB571F32D9D8F82430F361B4619E
:104E3000F36993B303EB5723F36108F13003C7F32E
:104E40000801194431620020BDE8F081B8F80A5029
:104E50006D0200E07F1BAF420FD321463046FFF7C3
:104E600060FF0446B0F1FF3F13D0012813D9D8F8F2
:104E700014308342EED80220E6E721464046FFF791
:104E8000D1FBF061D3E70220DEE70220DCE702205D
:104E9000DAE70120D8E70220D6E70220D4E72DE99F
:104EA000F041054606680F4651B9D6F80C80B8F1B6
:104EB000000F12D07369434511D84FF001080EE07E
:104EC000FFF72FFF0346012847D9B0F1FF3F49D034
:104ED0007269824246D8B84601E04FF00108444664
:104EE0000CE021462846FFF71CFF034678B1012855
:104EF00038D0B0F1FF3F35D0444532D0013473692A
:104F0000A342EED8B8F1010F29D90224E9E74FF006
:104F1000FF3221463046FFF77DFE034600B977B9E0
:104F2000A3B9F46032697369023B9A4201D8013A2D
:104F30003261337943F001033371234612E0224694
:104F400039463046FFF766FE0346E9E7012B01D0FC
:104F5000012307E04FF0FF3304E0012302E00023C8
:104F600000E000231846BDE8F081F8B50C4605685E
:104F700001292ED9064611466B69A3422BD94AB1A5
:104F80004FF0FF322846FFF745FE074610B123E0F9
:104F9000A24221D9274621463046FFF7C2FE0446E9
:104FA000E0B101281CD0B0F1FF3F1BD000223946F0
:104FB0002846FFF72FFE074670B92B696A69911ED4
:104FC0008B42E5D201332B612B7943F001032B7126
:104FD000DEE7022700E002273846F8BD0027FBE79E
:104FE0000227F9E70127F7E72DE9F0470668456949
:104FF000C369002B6CD0044688462035B5F5001FE8
:1050000068D2C5F308073FB90133C361816979B933
:105010003389B3EB551F07D9656106F130033B4473
:1050200023620020BDE8F0870023C3610420F9E774
:105030007389013B13EA5529EED1FFF772FE8246D0
:10504000012849D9B0F1FF3F48D07369834237D86E
:10505000B8F1000F11D0A1692046FFF720FF82466A
:1050600000283DD001283DD0B0F1FF3F3CD0304674
:10507000FFF7CFFB28B10120D4E70023E361042030
:10508000D0E74FF40072002106F13000FFF7D4F9A9
:1050900051463046FFF7C6FAF062738999450BD244
:1050A0000123F3703046FFF7B4FBF8B909F10109A9
:1050B000F36A0133F362F0E7F36AA3EB0903F362E7
:1050C000C4F818A051463046FFF7ACFAE061A3E7F8
:1050D0000420A7E70420A5E70220A3E70120A1E719
:1050E00007209FE702209DE701209BE7012099E729
:1050F00070B5044606680021FFF77BFE054640B107
:10510000284670BD00212046FFF76EFF05460028A7
:10511000F6D1E1693046FFF7A5FB05460028EFD13F
:10512000206A03787BB1C37A03F03F03A371C37A8B
:1051300013F0080FE6D10B2204F12401FFF781F9E7
:105140000028DFD1DCE70425DAE730B583B0044678
:105150000191056801E001330193019B1A782F2A20
:10516000F9D05C2AF7D00022A2601B781F2B1BD835
:10517000802384F82F3011462046FFF73AFE03467D
:10518000184603B030BD0428FAD112F0040FF7D14D
:105190000523F5E705F130016369C3F308031944FA
:1051A0002846FFF75CFAA06001A92046FFF77EFAC7
:1051B00003460028E4D12046FFF79AFF94F82F20F9
:1051C00003460028DFD112F0040FD9D1A37913F0E0
:1051D000100FDFD10523D3E7F8B504460E46076864
:1051E0000021FFF706FE0246C0B9002508E00135A0
:1051F000B54213D001212046FFF7F6FE024668B9FA
:10520000E1693846FFF72EFB024638B9236A1B785E
:10521000E52BECD0002BEAD00025EBE7042A01D0E7
:105220001046F8BD0722FBE770B504460668012169
:10523000FFF7D2FF054608B1284670BDE169304648
:10524000FFF710FB05460028F6D120220021206A36
:10525000FFF7F2F80B2204F12401206AFFF7E0F8CF
:105260000123F370E8E7000070B50446FFF7D1FAB8
:10527000054648B92378032B08D0002211466078F0
:10528000FFF7A4F800B10125284670BD2379012B52
:10529000F3D104F130064FF4007200213046FFF7DD
:1052A000CBF84AF6552104F22E20FFF7ABF80F4950
:1052B0003046FFF7ABF80E4904F50570FFF7A6F886
:1052C000216904F50670FFF7A1F8E16804F507709D
:1052D000FFF79CF8E2690132E2620123314660780F
:1052E000FFF768F800232371C7E700BF52526141FE
:1052F0007272416170B584B00190009116460391BD
:1053000003A8FFF739FA041E1CDB104B53F8245096
:1053100025B12846FFF768F900232B70019B0BB1DC
:1053200000221A70019B094A42F8243063B1012E11
:1053300002D0002004B070BD002201A96846FFF72A
:10534000E9FAF7E70B20F5E70020F3E7AC010020CE
:105350002DE9F04391B00191002800F00A81154633
:10536000064602F03F073A4603A901A8FFF7D2FA22
:10537000044630B10CB100233360204611B0BDE8C3
:10538000F083039B0493019904A8FFF7DEFE044613
:1053900060B99DF93F30002B50DB37F0010314BF9B
:1053A0000121002104A8FFF763F8044615F01C0F43
:1053B0005AD0002C4ED0042C42D047F00807002CC5
:1053C00061D117F0080F5ED0FCF7ACF90546014635
:1053D0000C980E30FFF71AF829460C981630FFF794
:1053E00015F80C9B2022DA72DDF80C80DDF8309085
:1053F00049464046FFF733F90546002249464046F4
:10540000FFF740F900210C981C30FEF7FFFF039BCB
:105410000122DA70BDB3039BD3F82C800022294609
:1054200004A8FFF7A2FD044668BB41460398FFF7B6
:1054300019FA0446013D039BDD6024E00624B5E72C
:10544000FFF750F808B91224B7E704A8FFF7ECFEFD
:105450000446B2E79DF8163013F0110F12D115F083
:10546000040FACD008240EE06CB99DF8163013F090
:10547000100F4CD115F0020F05D013F0010F02D020
:10548000072416E00724A4B917F0080F01D047F04D
:105490004007039BDB6A73620C9BB36237F0010326
:1054A00014BF0121002104A8FFF72CF83061002867
:1054B0005DD0002C7FF45EAF039DDDF83080414667
:1054C0002846FFF7CCF8B06008F11C00FEF78FFF0C
:1054D000F0600021F1623560EB88B380377571753B
:1054E0003162B16106F130084FF400724046FEF7B8
:1054F000A3FF17F0200F3FF43DAFF568002D3FF4F8
:1055000039AFB561039B5F897F02B16805E0042470
:10551000CFE7B1F1FF3F0BD0ED1B5CB9BD4209D91C
:105520003046FFF7FEFB01460128F2D80224F0E7DF
:105530000124F1E7F161002C7FF41CAFC5F30803EF
:10554000002B3FF417AF039F3846FFF76BF808B9FD
:10555000022410E700EB552232620123414678789D
:10556000FEF71CFF00283FF405AF012403E70224E7
:1055700000E7092401E72DE9F04F85B004460E4607
:10558000174698460023C8F80030019003A9FFF79A
:105590001DF90090002840F0AE80637D0093002B41
:1055A00040F0A980237D13F0010F00F0C380E5686F
:1055B000A369ED1ABD4262D33D4660E0E36A1BB1C8
:1055C0002046FFF73BF86AE0E1690198FFF7A9FB85
:1055D00065E04FF0020A84F815A0CDF800A08AE03B
:1055E0004FF0010A84F815A0CDF800A083E04FF039
:1055F000020A84F815A0CDF800A07CE094F91430DC
:10560000002B02DB4FEA4A272FE0206AA0EB0900BB
:105610005045F7D24FF4007204F1300106EB402000
:10562000FEF7FEFEEEE7226A4A450DD094F91430EB
:10563000002B64DB01234A4604F1300103984078D3
:10564000FEF7ACFE00286ED1C4F82090A369C3F326
:105650000803C3F50077BD4200D22F4604F13001A4
:105660003A4619443046FEF7DBFE3E44A3693B440C
:10567000A361D8F800303B44C8F80030ED1B002D82
:1056800039D0A169C1F30803002BDFD1039B5F89E7
:10569000013F17EA512708D100298FD1A0680128BE
:1056A00097D9B0F1FF3F9BD0E061DDF80CB0E16924
:1056B0005846FEF7B7FF8146002898D0B9444FEA14
:1056C000552AB5F5007FAED307EB0A03BBF80A20D5
:1056D000934201D9A2EB070A53464A4631469BF84A
:1056E0000100FEF75BFE002888D04FF0010A84F825
:1056F00015A0CDF800A0009805B0BDE8F08F0123FB
:1057000004F130019BF80100FEF754FE20B9237D1F
:1057100003F07F0323758DE74FF0010A84F815A08D
:10572000CDF800A0E7E74FF0010A84F815A0CDF806
:1057300000A0E0E707230093DDE72DE9F04F85B0F7
:1057400004460E46154698460023C8F800300190DE
:1057500003A9FFF73BF8009000284AD1637D00932E
:10576000002B46D1237D13F0020F00F0E380A369E4
:10577000EB42C0F0B180DD43AEE0E36A002B3CD0E9
:105780002046FEF75BFF002800F0CF80012839D0CB
:10579000B0F1FF3F3DD0E061A36803B9A06094F988
:1057A0001430002B3CDBDDF80CB0E1695846FEF705
:1057B00039FF8146002848D0B9444FEA552AB5F54B
:1057C000007F5ED307EB0A03BBF80A20934201D99E
:1057D000A2EB070A53464A4631469BF80100FEF702
:1057E000E9FD002838D04FF0010A84F815A0CDF863
:1057F00000A0009805B0BDE8F08FE1690198FFF7BF
:105800004EFBC0E74FF0020A84F815A0CDF800A0C7
:10581000EFE74FF0010A84F815A0CDF800A0E8E703
:105820000123226A04F1300103984078FEF7C2FD9B
:1058300020B9237D03F07F032375B4E74FF0010AFD
:1058400084F815A0CDF800A0D3E74FF0020A84F841
:1058500015A0CDF800A0CCE7216AA1EB09015145C4
:1058600002D34FEA4A2728E04FF4007206EB4121A9
:1058700004F13000FEF7D4FD237D03F07F03237590
:10588000EFE7236A4B4503D0A269E3689A423BD312
:10589000C4F82090A369C3F30803C3F50077BD42A1
:1058A00000D22F4604F130003A4631461844FEF744
:1058B000B7FD237D63F07F0323753E44A3693B441A
:1058C000A361E268934238BF1346E360D8F8003022
:1058D0003B44C8F80030ED1B3DB3A169C1F3080398
:1058E000002BD7D1039B5F89013F17EA51277FF433
:1058F00056AF00297FF441AFA06800287FF443AF82
:105900000198FFF7CCFA3EE701234A4604F1300143
:105910009BF80100FEF742FD0028B9D04FF0010AC4
:1059200084F815A0CDF800A063E7237D43F0400381
:1059300023755EE7072300935BE770B582B00446EA
:1059400001A9FEF743FF70B9237D13F0400F0AD081
:1059500013F0800F09D1FBF7E5FE0546616A019857
:10596000FEF780FF78B102B070BD0123226A04F116
:10597000300101984078FEF71DFD40BB237D03F008
:105980007F032375E7E7A66AF37A43F02003F372F7
:10599000A26831462068FEF775FEE16806F11C003A
:1059A000FEF734FD294606F11600FEF72FFD002113
:1059B00006F11200FEF726FD019B0122DA70019824
:1059C000FFF752FC237D23F040032375CBE7012032
:1059D000C9E710B582B00446FFF7AFFF08B102B0C7
:1059E00010BD01A92046FEF7F1FE0028F7D120697D
:1059F000FEF7DAFD0028F2D12060F0E72DE9F04F44
:105A000085B004460E46074603A9FEF7DFFE0546AD
:105A100000B9657D6DB9E36A002B00F08E80B6F1A8
:105A2000FF3F0AD0E768B74200D33746A761002F8F
:105A300044D1284605B0BDE8F08F994659F8043B9B
:105A40000193D4F808B0BBF1000F2AD04FF0020A3E
:105A50000AF1020A59464FF0000808F101080E4603
:105A60003846FFF75EF90146012814D9B0F1FF3F2F
:105A700014D001368642F0D0019B534505D34B46E6
:105A800043F8088BC9F804B09946039B5B698B42C5
:105A900009D98B46DCE702256575CAE701256575DE
:105AA000C7E74FF0020AE36AC3F800A0019B9A45DA
:105AB00000F2EE800023C9F80030BAE707F1FF38A2
:105AC00041462046FEF7BAFD0146E061039E30469E
:105AD000FEF7A8FDE0B17189013901EA582101EB17
